:020000040800F2
:100000001016002015020008510D00086F0A0008A4
:100010004D0D000845070008A3120008000000006D
:10002000000000000000000000000000090F0008B0
:100030004907000800000000D90D00081D10000845
:100040002F0200082F0200082F0200082F020008CC
:100050002F0200082F0200082F0200082F020008BC
:100060002F0200082F0200082F0200082F020008AC
:100070002F0200082F0200082F0200082F0200089C
:100080002F0200082F0200082F0200082F0200088C
:100090002F0200082F0200082F0200084D07000859
:1000A0002F0200082F0200082F0200082F0200086C
:1000B0002F0200082F0200082F0200082F0200085C
:1000C0002F0200082F0200082F0200082F0200084C
:1000D0002F020008811000082F0200082F020008DC
:1000E0002F0200082F0200082F0200082F0200082C
:1000F0002F0200082F0200082F0200082F0200081C
:100100002F0200082F0200082F0200082F0200080B
:100110002F0200082F0200082F0200082F020008FB
:100120002F0200082F0200082F0200082F020008EB
:1001300000F002F800F05FF80AA090E8000C82449A
:100140008344AAF10107DA4501D100F054F8AFF277
:10015000090EBAE80F0013F0010F18BFFB1A43F0A5
:10016000010318471C1C00003C1C00000A444FF00F
:10017000000C10F8013B13F0070408BF10F8014B06
:100180001D1108BF10F8015B641E05D010F8016B4B
:10019000641E01F8016BF9D113F0080F1EBF10F8AF
:1001A000014BAD1C0C1B09D16D1E58BF01F801CBD2
:1001B000FAD505E014F8016B01F8016B6D1EF9D555
:1001C0009142D6D37047000000230024002500266A
:1001D000103A28BF78C1FBD8520728BF30C148BFAA
:1001E0000B607047642900F07780002070471FB5CE
:1001F0001FBD10B510BD00F037F91146FFF7F7FF2E
:1002000001F0F8F800F055F903B4FFF7F2FF03BC72
:1002100001F049F80948804709480047FEE7FEE732
:10022000FEE7FEE7FEE7FEE7FEE7FEE7FEE7FEE7A6
:1002300004480549054A064B704700002110000894
:1002400031010008101000201016002010120020AC
:1002500010120020704700000FB4044910B503AA23
:10026000029800F0D3F810BC5DF814FB20000020C9
:100270002DE9F0410E460446002020622046E16848
:10028000884730B3252805D0D4E901219047206A5A
:10029000401CF2E7E168204600278847050018D097
:1002A000A5F14100192802D820354FF400673246E5
:1002B000294620462760FFF795FF40B1012804D06A
:1002C000F61D26F007060836D8E7361DD6E728467D
:1002D000DAE7206ABDE8F0812DE9F0410646002406
:1002E00010687529314616A510D0AFF3008000289C
:1002F00002DA404213A507E031688A0701D512A54A
:1003000002E0490704D511A5012401E0AFF3008004
:1003100000210A2206F1240709E0B0FBF2FCB0FB41
:10032000F2F302FB1C00303078541846491C0028B8
:10033000F3D123462A463046BDE8F04100F00CB820
:10034000000000002D0000002B0000002000000035
:1003500070477047704770472DE9F0470D46994642
:100360009246044600F124080168880604D5E06935
:1003700021F01001216000E00120A84201DD471BAF
:1003800000E00027A1697A1902EB0900081AA061B0
:100390002078C00602D42046AFF30080002608E093
:1003A000D4E901211AF806009047206A401C761C07
:1003B00020624E45F4DB2078C0060AD52046AFF314
:1003C000008006E0D4E9012130209047206A401CDB
:1003D0002062381EA7F10107F4DC07E0D4E901210F
:1003E00018F805009047206A401C2062281EA5F1DD
:1003F0000105F3DC2046AFF300802078000602D52B
:100400000220BDE8F0870120FBE70000074B70B534
:100410000D467B4400F011F80446284600F020F811
:1004200010B14FF0FF3070BD204670BDC30F00000B
:1004300001694A1C02610878704700B58FB0CDE9A8
:1004400001310021059105497944CDE90310114698
:100450006846FFF70DFF0FB000BD0000E5FFFFFF8E
:10046000007B00F080007047754600F02BF8AE4628
:1004700005006946534620F00700854618B020B5B0
:10048000FFF7D6FEBDE820404FF000064FF0000712
:100490004FF000084FF0000B21F00701AC46ACE82C
:1004A000C009ACE8C009ACE8C009ACE8C0098D4699
:1004B000704710B50446AFF300802046BDE81040F9
:1004C000FFF7A2BE00487047B00F002021B182683C
:1004D00042F00102826003E0826822F00102826041
:1004E0007047000010B504461248844208D101212B
:1004F000401500F08FFC0021601500F08BFC17E028
:100500000D48844208D10121001500F083FC002130
:10051000201500F07FFC0BE00848844208D101213F
:10052000C80300F077FC00214FF4004000F072FC9B
:1005300010BD00000024014000280140003C0140A3
:10054000014600208A6802F004020AB1012000E09E
:10055000002070470146C86C80B2704702460020F8
:1005600013680B400BB1012000E0002070470146EA
:1005700000208A6802F008020AB1012000E0002091
:100580007047000030B502460020002350680F4C31
:1005900020400D790C6844EA05242043506090689F
:1005A0000B4C2040D1E902542C434D7944EA4504D8
:1005B00020439060D06A20F470000C7C641EE4B28A
:1005C000234340EA0350D06230BD0000FFFEF0FF3D
:1005D000FDF7F1FFF0B504460D4600200021092D7E
:1005E00011DDE068A5F10A0606EB4607072606FAC4
:1005F00007F18843A5F10A0606EB460603FA06F161
:100600000843E0600CE0206905EB4507072606FA81
:1006100007F1884305EB450603FA06F1084320611C
:10062000072A0FDA606B561E06EB86071F2606FAAE
:1006300007F18843561E06EB860605FA06F10843C5
:10064000606322E00D2A0FDA206BD61F06EB8607C7
:100650001F2606FA07F18843D61F06EB860605FA21
:1006600006F10843206310E0E06AA2F10D0606EBF4
:1006700086071F2606FA07F18843A2F10D0606EB4E
:10068000860605FA06F10843E062F0BD816841F094
:1006900008018160704721B1826842F4A002826043
:1006A00003E0826822F4A00282607047816841F012
:1006B000040181607047000000B587B001214FF44C
:1006C000017000F097FB4FF4004000F087FB07201B
:1006D000ADF8040000208DF8070001A9174800F0CC
:1006E00005F91748FFF7FEFE002002908DF80C0078
:1006F0008DF80D004FF4602004900020059001203B
:100700008DF8180002A90E48FFF73CFF01210C48A4
:10071000FFF7DCFE0A48FFF7B9FF00BF0848FFF704
:1007200026FF0028FAD10648FFF7C0FF00BF0448A3
:10073000FFF706FF0028FAD107B000BD000801400E
:100740000024014000BFFEE77047000010B5012003
:1007500000F0CEFD0948006801280BD10748001DB4
:100760000068012803D106A0FFF776FD02E007A08C
:10077000FFF772FD402000F049F810BD1801234238
:10078000454331313A202B31200D0A006B6E6F62E8
:100790003A202D31200D0A0008B50121402000F03B
:1007A00029FBC020ADF8000028208DF80300694621
:1007B000014800F09BF808BD001801400EB501216A
:1007C000084600F017FBFFF7E7FF0621042000F0C2
:1007D0006DF84020019000208DF8080008208DF869
:1007E000090001208DF80A0001A800F015F8172073
:1007F0008DF8000002208DF8010001208DF8020024
:100800008DF80300684600F0A5FA0EBD01490860A6
:100810007047000014040140002123498279002A16
:100820003AD00A46126803689A430B461A600A1DBA
:10083000126803689A430B1D1A60027911440A6812
:1008400003681A430A60184A0832126803689A4318
:10085000154B08331A601A1D126803689A43124B2D
:100860000C331A604279102A0ED11A1F12680368DD
:100870001A430D4B08331A601A1D126803681A4395
:10088000094B0C331A600DE00749427911440A689C
:1008900003681A430A6005E0027911440A68036894
:1008A0009A430A60704700000004014030B50022FE
:1008B0008B071C0F0F2303FA04F20B4B8C1053F819
:1008C00024309343084C8D1044F8253023468C1077
:1008D00053F824308C07240F00FA04F42343024C0D
:1008E0008D1044F8253030BD080001402DE9F0415D
:1008F000024600250026002000230024002791F84E
:1009000003C00CF00F0591F803C00CF0100CBCF103
:10091000000F03D091F802C04CEA050591F800C021
:10092000BCF1000F31D0146800202BE04FF0010C17
:100930000CFA00F3B1F800C00CEA03069E4220D185
:1009400083004FF00F0C0CFA03F7BC4305FA03FCCD
:100950004CEA040491F803C0BCF1280F06D14FF013
:10096000010C0CFA00FCC2F814C00AE091F803C0B4
:10097000BCF1480F05D14FF0010C0CFA00FCC2F895
:1009800010C0401C0828D1D31460B1F800C0BCF1DD
:10099000FF0F34DD546800202EE000F1080C4FF00A
:1009A000010808FA0CF3B1F800C00CEA03069E42F5
:1009B00021D183004FF00F0C0CFA03F7BC4305FA6A
:1009C00003FC4CEA040491F803C0BCF1280F05D1E4
:1009D00000F1080C08FA0CF8C2F8148091F803C072
:1009E000BCF1480F07D100F1080C4FF0010808FADC
:1009F0000CF8C2F81080401C0828CED35460BDE823
:100A0000F0814161704701617047000010B50446F4
:100A10000723012221460948FFF7DCFD0121074891
:100A2000FFF739FE00BF02210448FFF797FD0028B9
:100A3000F9D00248FFF78EFD10BD000000240140F0
:100A40002DE9F04107460C460025002608E038460F
:100A5000FFF7DCFF0544052000F04AFC701CC6B21D
:100A6000A642F4DBB5FBF4F080B2BDE8F08100BF34
:100A7000FEE7000008B50121082000F0BBF9C02006
:100A8000ADF8000014208DF8030003208DF802005B
:100A900069460448FFF72AFFC0210248FFF7B3FF69
:100AA00008BD0000000C014070B504461548006800
:100AB00020F07040134908600846006840F040503C
:100AC0000860002010490860002517E0E0090E4981
:100AD000091D08606006040E022000F02FFC0120B2
:100AE0000A49C1F89801022000F028FC00200649BC
:100AF0000860022000F022FC681CC5B2082DE5DB6E
:100B000070BD0000000C014098812142008021420C
:100B100010B50F48006820F070400D490860084685
:100B2000006840F04050086001200A4908600A4906
:100B3000C1F89801042000F001FC0020054908607C
:100B4000042000F0FBFB00200349C1F8980110BD10
:100B5000000C01409C8121420080214210B51048C8
:100B6000006820F070400E4908600846006840F0B8
:100B70004050086000200B4908600B49C1F89C01F7
:100B8000042000F0DBFB01200649086000F0D6FBE2
:100B900001200549C1F89C01042000F0CFFB10BDE5
:100BA000000C0140988121420080214210B50024B0
:100BB0001448006820F07040124908600846006838
:100BC00040F00040086001200F49086000F0B6FBCB
:100BD00001200E49C1F8980100F0B0FB07E0601C4D
:100BE000C4B2FA2C03DDFFF7B9FF012010BD06489F
:100BF000803800680028F2D10349091F086000BF4F
:100C0000F4E70000000C01409C8121420080214259
:100C100010B50B48007800F0200078B10948007842
:100C2000401C0849087008460078042801D10020BB
:100C300008700448017804A0FFF70EFB10BD000007
:100C4000E30E0020E10E002054696D655F5365746A
:100C50005F4D6F64653D25640A00000031480068FF
:100C600018B901203049087002E000202E490870B0
:100C70002C48001D006818B902202C49087002E0B9
:100C800000202A49087027480830006818B9042055
:100C90002749087002E000202549087021480C30DF
:100CA000006818B908202349087002E00020214993
:100CB00008701C481030006818B910201E490870D0
:100CC00002E000201C49087016481430006818B96A
:100CD00020201A49087002E00020184908701248C4
:100CE00000781249097808431149097808431149E5
:100CF00009780843104909780843104909780843DE
:100D00000F490870084600780E49097848400C4998
:100D1000097808400C4908700948007809490870AA
:100D20007047000000012342DB0E0020DC0E002093
:100D3000DD0E0020DE0E0020DF0E0020E00E002081
:100D4000E20E0020E40E0020E30E002000BFFEE7CC
:100D50007047000070B5002100230F22C47804B34F
:100D6000154C246804F4E064C4F5E064210AC1F180
:100D70000403CA40447804FA03F184781440214300
:100D800009010E4C0678A155047804F01F050124D2
:100D9000AC4005786D11AD0005F1E025C5F80041C6
:100DA00009E0047804F01F050124AC40044D0678E6
:100DB000761145F8264070BD0CED00E000E400E03F
:100DC00080E100E002490143024A116070470000DF
:100DD0000000FA050CED00E070470000014600201D
:100DE000034A506820F440400843506070470000B8
:100DF0000010024029B1064A92690243044B9A61ED
:100E000004E0034A92698243014B9A6170470000F3
:100E10000010024029B1064AD2680243044BDA604E
:100E200004E0034AD2688243014BDA607047000055
:100E30000010024030B500210022002400232D4D77
:100E40006D6805F00C0121B1042905D0082923D1D2
:100E500005E0294D056022E0274D05601FE0254D86
:100E60006D6805F47012234D6D6805F48034022519
:100E700005EB92421CB9214D554305600BE01D4D19
:100E80006D6805F400351DB11C4D5543056002E049
:100E9000194D5543056002E0174D056000BF00BFC6
:100EA000144D6D6805F0F0010909154D6B5C05687E
:100EB000DD4045600F4D6D6805F4E061090A104D95
:100EC0006B5C4568DD4085600A4D6D6805F46051D6
:100ED000C90A0B4D6B5C4568DD40C560054D6D680A
:100EE00005F44041890B074D6B5CC568B5FBF3F514
:100EF000056130BD0010024000127A0000093D007B
:100F00002600002036000020704710B500F002F8DF
:100F100010BD00000CB5002001900090334800681F
:100F200040F480303149086000BF3048006800F468
:100F3000003000900198401C0190009818B9019869
:100F4000B0F5A06FF1D12948006800F4003010B16D
:100F50000120009001E0002000900098012843D17A
:100F60002348006840F010002149086008460068E6
:100F700020F0030008600846006840F002000860A6
:100F80001A48406819494860084640684860084661
:100F9000406840F4806048600846406820F47C1057
:100FA00048600846406840F4E81048600846006819
:100FB00040F08070086000BF0C48006800F00070CE
:100FC0000028F9D00948406820F00300074948602C
:100FD0000846406840F00200486000BF034840688F
:100FE00000F00C000828F9D10CBD000000100240F0
:100FF00000200240042808D14FF0E021096941F0A7
:1010000004014FF0E022116107E04FF0E02109698F
:1010100021F004014FF0E022116170477047000099
:1010200010B51348006840F00100114908600846F7
:101030004068104908400E494860084600680E495B
:1010400008400B4908600846006820F480200860CA
:101050000846406820F4FE0048604FF41F00886096
:10106000FFF753FF4FF000600449086010BD000017
:10107000001002400000FFF8FFFFF6FE08ED00E060
:1010800010B540F225511D4800F04AF810B31B4836
:1010900000F002F9C4B21A48008800F40040C8B950
:1010A0001748008800F4804060B10A2C03D000206B
:1010B0001349088020E01248008840F4004010499D
:1010C000088019E00D2C06D10D48008840F48040BE
:1010D0000B49088010E00A480088C0F30D00094958
:1010E0000C5407480088401C0549088008460088C1
:1010F000C72801DD0020088010BD00000038014035
:1011000024000020E80E002021B1828942F4005220
:10111000828104E082894DF6FF731A408281704714
:1011200070B50246002400230025002040F66A1610
:10113000B14200D100BFC1F3421501F01F030126E7
:1011400006FA03F3012D02D19689334006E0022D01
:1011500002D1168A334001E0968A33400C120126F0
:1011600006FA04F41688344013B10CB1012000E0F3
:10117000002070BDF0B503460024002600250020A5
:1011800040F66A17B94200D100BF1846C1F34214B5
:1011900001F01F06012707FA06F5012C01D10C30DA
:1011A00004E0022C01D1103000E014301AB10768BD
:1011B0002F43076002E00768AF430760F0BD0000FF
:1011C0002DE9F04786B005460E460024A24600BF32
:1011D000A1460027B08900B100BF2F462C8A4CF6EB
:1011E000FF700440F08804432C82AC894EF6F31063
:1011F0000440B08831890843718908430443AC81B5
:10120000AC8A4FF6FF400440B0890443AC8201A889
:10121000FFF710FE1F48874202D1DDF810A001E061
:10122000DDF80CA0A88900F4004040B10AEBCA0028
:1012300000EB0A1031684900B0FBF1F807E00AEB57
:10124000CA0000EB0A1031688900B0FBF1F8642095
:10125000B8FBF0F004012009642101FB1089A88982
:1012600000F4004040B1322000EBC900B0FBF1F0C7
:1012700000F00700044308E0322000EB091064216D
:10128000B0FBF1F000F00F0004432C8106B0BDE884
:10129000F08700000038014001468888C0F308004C
:1012A000704700BFFEE7014600BF704710B56FF002
:1012B0000400FFF79FFE0A4800680A49B0FBF1F0FE
:1012C000094908700846007800EB4001C1EBC010E6
:1012D0004FF6FF7101EAC0000449088010BD00000C
:1012E0000800002000127A001C0000201E000020D0
:1012F0000146114A12884A434FF0E0235A61002206
:101300009A611A46126942F001021A6100BF4FF059
:10131000E022106900F001021AB100F48032002AC4
:10132000F5D04FF0E022126922F001024FF0E023E5
:101330001A6100229A6170471E0000200146114A7E
:1013400012784A434FF0E0235A6100229A611A460C
:10135000126942F001021A6100BF4FF0E0221069E9
:1013600000F001021AB100F48032002AF5D04FF0EB
:10137000E022126922F001024FF0E0231A610022FC
:101380009A6170471C00002070B50646002420E0DA
:10139000204600F04FFC002000F02FFCFFF7B8FBC8
:1013A0007820FFF781FBFFF701FC4020FFF77CFB73
:1013B000FFF7FCFB002506E03046FFF775FBFFF763
:1013C000F5FB681CC5B2802DF6DBFFF7C7FB601C80
:1013D000C4B2082CDCDB70BD00BF054A128802F0E5
:1013E0004002002AF9D0C2B2014B1B1D1A8070477F
:1013F000003801404FF4A060FFF7E4FCFFF7DEF98E
:10140000FFF754FF4FF4E13000F06AFC00F03BF9C5
:10141000FFF752F900F03EF831E032210120FFF7EA
:101420000FFB044640F6C511614301EB81018800C2
:10143000C11700EB1151C1F30F34214610A0FEF784
:101440000BFF1148848032210220FFF7F9FA04468D
:1014500040F6C511614301EB81014800C11700EB63
:101460001151C1F30F34214608A0FEF7F5FE0648DE
:10147000C48000F0D7F9FFF7F1FBFFF7C9FBCCE719
:101480004348313D25640A00000000204348323DB6
:1014900025640A0008B500200346082213210090A5
:1014A000032000F009F908200023024635210090AE
:1014B000032000F001F96020022308221621009089
:1014C000032000F0F9F86020042308220121009095
:1014D000032000F0F1F86020062308221721009075
:1014E000032000F0E9F8202300220E21012000F063
:1014F000A9FB402300223621012000F0A3FB20237A
:1015000001220E21104600F09DFB402301222121E3
:10151000104600F097FB0020022310220E210090BD
:10152000184600F0C9F81020022302460F2100904F
:10153000184600F0C1F8202002230822352100902F
:10154000032000F0B9F84020022308224121009036
:10155000032000F0B1F80020042310220E21009097
:10156000022000F0A9F81020042302460146009052
:10157000022000F0A1F82020042308223521009049
:10158000032000F099F84020042308224121009014
:10159000032000F091F80020062310221121009072
:1015A000022000F089F81020062302461221009044
:1015B000022000F081F82020062308223521009027
:1015C000032000F079F840200623082241210090F2
:1015D000032000F071F808BD08B501214020FFF795
:1015E00009FC4FF4C060ADF8000003208DF8020044
:1015F00010208DF8030069460248FFF777F9FFF7DE
:1016000039FA08BD0018014010B54FF49670FFF785
:101610006FFE122000F08BFAAE2000F0BBFAA02083
:1016200000F0A6FA3F2000F0D0FA002000F0A9FA5E
:10163000002000F0F8FA052000F0BEFA022000F0C9
:101640006DFAA12000F0D3FAC82000F082FA12202F
:1016500000F076FAEF2000F082FA152000F0BEFAD2
:10166000082000F052FAA42000F09AFAA62000F018
:101670009DFA0020FFF788FEAF2000F08BFA0A20C9
:10168000FFF736FE10BD10B5FFF7A6FF00F004F817
:10169000FFF7BAFF10BD000010B500F091F80A2066
:1016A000FFF726FE4FF480610248FFF7ACF900F027
:1016B0007DF810BD001801402DE9F84F82460F4615
:1016C00090469946DDF828B0BAF1010F06D0BAF17C
:1016D000020F04D0BAF1030F0BD105E00AE0781E27
:1016E000304901EB401605E0781E2F4901EB00164A
:1016F00000E000BF00BF3446484600F09BFA584661
:1017000000F07BFAFFF704FA7820FFF7CDF9FFF736
:101710004DFA4020FFF7C8F9FFF748FA00250AE024
:10172000207800F057F80090FFF7BEF9FFF73EFA77
:10173000A41C681CC5B24545F2DB0020FFF7B4F9D4
:10174000FFF734FAFFF70AFA09F10101C8B200F015
:1017500071FA584600F051FAFFF7DAF97820FFF7EE
:10176000A3F9FFF723FA4020FFF79EF9FFF71EFACF
:10177000741C00250AE0207800F02CF80090FFF798
:1017800093F9FFF713FAA41C681CC5B24545F2DBB8
:101790000020FFF789F9FFF709FAFFF7DFF9BDE845
:1017A000F88F0000540400204400002010B54FF4CE
:1017B00000710248FFF727F910BD00000018014032
:1017C00010B54FF400710248FFF71BF910BD00007F
:1017D000001801400146002001F00F02054B9A5C01
:1017E00040EA0212D0B21A4602EB211212781043DC
:1017F00070470000CB0E002010B50446FFF788F9B3
:101800007820FFF751F9FFF7D1F90020FFF74CF9E5
:10181000FFF7CCF92046FFF747F9FFF7C7F9FFF7C5
:101820009DF910BD38B50446208842F2107190FB36
:10183000F1F00A2190FBF1F201FB120030B9102304
:1018400000226021012000F0FDF911E0208842F221
:10185000107190FBF1F00A2190FBF1F201FB1200F4
:101860001030C5B2102300222946012000F0EAF909
:1018700020884FF47A7190FBF1F00A2190FBF1F28D
:1018800001FB12001030C5B21823002229460120A6
:1018900000F0D8F92088642190FBF1F00A2190FB38
:1018A000F1F201FB12001030C5B2282300222946B4
:1018B000012000F0C7F920880A2190FBF1F090FB8D
:1018C000F1F201FB12001030C5B23023002229468C
:1018D000012000F0B7F9608842F2107190FBF1F03E
:1018E0000A2190FBF1F201FB120030B91023012212
:1018F0006021104600F0A6F911E0608842F21071F4
:1019000090FBF1F00A2190FBF1F201FB1200103084
:10191000C5B2102301222946104600F093F96088D1
:101920004FF47A7190FBF1F00A2190FBF1F201FB88
:1019300012001030C5B2182301222946104600F0CB
:1019400081F96088642190FBF1F00A2190FBF1F2AB
:1019500001FB12001030C5B228230122294610468F
:1019600000F070F960880A2190FBF1F090FBF1F231
:1019700001FB12001030C5B2302301222946104667
:1019800000F060F9A08842F2107190FBF1F00A219A
:1019900090FBF1F201FB120040B930200223082233
:1019A000402100900320FFF787FE13E0A08842F259
:1019B000107190FBF1F00A2190FBF1F201FB120093
:1019C0003630C5B230200223082229460090032079
:1019D000FFF772FEA0884FF47A7190FBF1F00A21B4
:1019E00090FBF1F201FB12003630C5B23820022321
:1019F0000822294600900320FFF75EFEA08864219C
:101A000090FBF1F00A2190FBF1F201FB120036305D
:101A1000C5B2482002230822294600900320FFF780
:101A20004BFEA0880A2190FBF1F090FBF1F201FB44
:101A300012003630C5B250200223082229460090F9
:101A40000320FFF739FEE08842F2107190FBF1F0BD
:101A50000A2190FBF1F201FB120040B9302004236F
:101A60000822402100900320FFF726FE13E0E088C3
:101A700042F2107190FBF1F00A2190FBF1F201FBB0
:101A800012003630C5B230200423082229460090C7
:101A90000320FFF711FEE0884FF47A7190FBF1F01C
:101AA0000A2190FBF1F201FB12003630C5B238205A
:101AB00004230822294600900320FFF7FDFDE0885B
:101AC000642190FBF1F00A2190FBF1F201FB12007E
:101AD0003630C5B24820042308222946009003204E
:101AE000FFF7EAFDE0880A2190FBF1F090FBF1F2AC
:101AF00001FB12003630C5B25020042308222946CB
:101B000000900320FFF7D8FD38BD10B50446DB2058
:101B1000FFF772FE0820FFF76FFE10BD10B50446F8
:101B20002020FFF769FE2046FFF766FE10BD10B5C6
:101B30000446FD20FFF760FE2046FFF75DFE10BD66
:101B400010B50446DA20FFF757FE2046FFF754FE93
:101B500010BD10B504462046FFF74EFE10BD10B56F
:101B600004468120FFF748FE2046FFF745FE10BDE2
:101B700010B50446D520FFF73FFE2046FFF73CFE98
:101B800010BD10B50446D320FFF736FE0020FFF746
:101B900033FE10BD10B504462046FFF72DFE10BDE4
:101BA00010B504462046FFF727FE10BD10B50446C9
:101BB0002046FFF721FE10BD10B50446D820FFF7E0
:101BC0001BFE2046FFF718FE10BD10B50446A820E6
:101BD000FFF712FE2046FFF70FFE10BD10B50446BA
:101BE000D920FFF709FE1520FFF706FE10BD10B53E
:101BF00004462046FFF700FE10BD70B5044625469A
:101C0000E11704EB11710911A4EB0111C8B2FFF740
:101C1000F3FD2546E11704EB117109111031C8B22B
:101C2000FFF7EAFD70BD10B5044644F04000FFF731
:101C3000E3FD10BD10B5044644F0B000FFF7DCFD35
:101C400010BD00002DE9F04707460D469046994625
:101C5000012F04D0022F08D0032F11D10BE0681EF2
:101C600000EB80001B4944180BE0681E00EB80006D
:101C70001949441805E0681E184901EB001400E0FA
:101C800000BF00BF4046FFF7D5FF4846FFF7B5FF4E
:101C9000FEF73EFF7820FEF707FFFEF787FF4020A4
:101CA000FEF702FFFEF782FF002607E02078FEF72E
:101CB000FBFEFEF77BFF641C701CC6B2052EF5DB35
:101CC0000020FEF7F1FEFEF771FFFEF747FFBDE8CB
:101CD000F087000004080020B40C002094060020C7
:101CE00010B586B00446012144F20400FFF782F8E3
:101CF0004FF40070ADF8140003208DF81600182082
:101D00008DF8170005A91C48FEF7F0FD4FF4806020
:101D1000ADF8140004208DF8170005A91648FEF749
:101D2000E5FD25208DF8000003208DF801008DF8D9
:101D3000020001208DF803006846FFF70BF80194BC
:101D40000020ADF80800ADF80A00ADF80C00ADF8C1
:101D500010000C20ADF80E0001A90848FFF730FA7A
:101D6000012240F225510548FFF704FA01210348FA
:101D7000FFF7CAF906B010BD000801400038014065
:101D8000A01D000800000020E80E00006C01000803
:101D90009C280008E80E002028070000C801000861
:101DA0001009E02EE803EB2EE70384A24A04E009C1
:101DB00001020304060708092916691A200E020405
:101DC00006080906120505030F0D0D120410083C44
:101DD00003C41C40074012E4121C28080410041F0E
:101DE000FC110402130E8822701E03E00C1810165A
:101DF000190224081C10292049104D080807F0106A
:101E0000292E1B17C4127A1810111417C01032088B
:101E1000794014441C785A4040128412802C80105F
:101E2000844A291269544109123048091104038077
:101E30001464181C2E393649024A0C10131F806C8A
:101E40007C1F804E261FFC0C04031CE0101812118E
:101E5000ED07F00808B02D1084108002320F3920F1
:101E60001A14028E0C080A07F2C01F11C011300E9E
:101E70000C64111D0E1C1104321A8492223812189F
:101E80005A10841A100C1930114B1FF89019161A99
:101E9000F81C11121E1311E0121C2D7013801C2C43
:101EA000112B1FC09E19042BC01030280E04180CD3
:101EB000163401C001C01634180C46121C1313044A
:101EC0002CFC13042E2118090804101C1064108423
:101ED000102B041061211C9801240212482AFC8E48
:101EE0001208130FFC168801040104128852704A6C
:101EF00070103912414AF80E1B09082A19321910BC
:101F0000294019021142E8291C2F07FC0904090481
:101F10001D313CD60129022CC901068019361384D3
:101F2000011902199629402E01041904190A592F82
:101F30001112034008010101190119FE3930122460
:101F40001E600194010C3239127C08041F30196E96
:101F50001AFC04114906112906D96069B019101A32
:101F6000F830140101FF0A1289E019161AFF1F291F
:101F70002A2942295452806ACCE03B019872190206
:101F80003A0754113A080E3AF88C1C040108382913
:101F90003614C001301C0C013008292E3C80017021
:101FA0000E12E02C1C016052193A1A8C141A740695
:101FB00029FE111501810161121E2A181E39321ADB
:101FC00084EA2C34014408817C030C030C600D0767
:101FD000F0080810041004080807F02E080408048C
:101FE0001FEC29EE11380C0E0C10141024104410A4
:101FF000840F341B0C182E500884108411440E38A2
:1020000018086001A002240C24321A2402112D1F8A
:10201000981104025D10881070602A88101309045A
:1020200042F8121812101E107C1180160A39601B1B
:1020300038115C89501D0F8010486E6C44088890E0
:10204000F11A0C02D11809FFC0804084408450026C
:102050003A700680084095408E40C4C02B1F800215
:102060001E3FC07FE0FF521209D0084620402030BA
:10207000C00F221F100C807E50FF50FF70FF507E5B
:10208000501A8010911CCF3090011E92908B1080BE
:1020900002800B9F90821086108910D0B01CCCB0AB
:1020A000941E3A931C49228792109210CC30120F42
:1020B000180A39C049204920FFF089382BFFF00C5D
:1020C0009A398049C07C8E5095C029020916C014E7
:1020D00008800512021A0508911210AC201F40C09A
:1020E0001420805F891F0911C0119488D0D0F9C0D5
:1020F0001380929492D0CCD9C01112481C48D03889
:1021000016A9C019021A50023A7006290E8B40FF18
:10211000C04CF81110025CFFFE1101131FF93A01C7
:102120004312015F067FF8400241023B5FFE081840
:102130000822411A41024002EE1008200620407E8B
:10214000318017012202267C2A12B214627F2212E9
:102150002A1F267E23012007FB180A08100C1008EE
:102160001FF810105F501012080C0870FF80080252
:10217000080108020FFC18191028902510221024BD
:10218000902C90B59066BF2490299020D0221025E5
:1021900018113210D36060C63E5149453EBC427FA3
:1021A000400FB561514946B62141454B312D1814B8
:1021B000127F5781B62745454539B63C4A494930D3
:1021C000B60171090503B63649494936D60649496B
:1021D000291E1AFC0189071AE0011A600432C01A8C
:1021E000EC0131300D043CFCFCF08080F0FCFC3C48
:1021F00004300C070F1F1F1C181C1F1F0F071A1F6E
:10220000014905590C3985192319204201300C80E8
:10221000E0E0F0703070F0E0E0801AF00171290B1E
:102220002A3001690C1C70F0F024300C0F3F3F7F06
:102230007060707F3F3F0F1A7F011A6001590B1ABF
:102240006301690C19242A7F242A4F9419021B1454
:102250007F021010242A7F2A122313086462364951
:10226000552250330503241C22411441221C1F1403
:10227000083E0814080512081A50772A0801112987
:102280005D100B20100804023E5149453E14427F68
:1022900040102942615149462141454B31181412E1
:1022A0007F1027454545393C4A49493001710905A8
:1022B000033649494936064949291E3336361A56E6
:1022C000051B0814642A1401196928131408020153
:1022D000510906324979413E7E1111117E7F321F2C
:1022E0003E414141227F042A1C0F180D417F0909FC
:1022F00009013E4149497A7F86127F14417F412F6F
:102300002040413F017F4C1B7F4001280B7F020C86
:10231000027F7F0408107F3C2A3E32180D063E41A2
:1023200051215E7F09192946464618083101017F6F
:1023300001013F2C18163F1F2040201F3F4038400E
:102340003F63140814630708700807C7134543194F
:1023500074111A024612201441417F2E0402010218
:10236000045E1A400819FA180F545454787F4844F0
:1023700044383844444420051C487F38141F18084A
:102380007E090102E61008493F7F080404781C44D6
:102390007D40A013443D257F10284419A2112F7CB5
:1023A0000418047C7C1E293C1B387CFE3E08081463
:1023B0001418141B084846180D20043F4440203CC4
:1023C0004040207C1CA018091C3C4030403C442864
:1023D00042100B0C5050503C4464544C443408366A
:1023E00041327F14413608299F77023E55554122DC
:1023F000224F20151824742E24487E4942405D2225
:1024000022225D15167C16152277160A5555552879
:102410001A010211180B0A0D0A0408142A142204C6
:1024200001121C140808082A010111140205021DDA
:1024300044445F44B519FC18097E2020103E060F65
:102440007F703318183C4050203C111A223C28223F
:10245000081708342A7D1708046A59304845402077
:1024600070292628707028262970702A252A7072F3
:10247000290A2B29240F48132D2A707E117F4949E0
:102480000E515171117C55565444051C5655560A2F
:10249000145455441B457E7224447E4524467D4693
:1024A00014457C4519303816413E7C0A11227D388E
:1024B000454644383844464538384645460518357B
:1024C00039384544453822140814222E5149453ADA
:1024D0003C4142403C3C4042413C3C4241423C3C0D
:1024E0004140413C0C1062110C7F1212120C403E14
:1024F0000149362073180878205456557820781AE8
:10250000780F190A197D190F180F57567824547827
:1025100054580C5252721338281B1838281B18387C
:10252000281B183823121824497A4024487A411C61
:102530004A7942051378423819314A4E4A307A11A5
:102540000A097030494A483030484A4930304A49CF
:102550004A05181F31304A484A3008082A08083806
:1025600064544C383841422078384042217838420F
:10257000412205281D4022780C5052513C7E1414F3
:1025800014080C5150513C1E0909295E08151535D7
:102590004EEB2A20501A20FA190A1A490A1A7C0A04
:1025A0001808382050507C031F231B510E051B4672
:1025B0007CC31A44AF19A014447C40167F484440A1
:1025C0004014497F4418087C0812217C78109B2B0A
:1025D0007C090A29A5281A3847444738304B484B0C
:1025E000303E417F494938443854587C15163548A7
:1025F0001E1B1048F01C202048051A48501C2020A3
:102600004905102D04057E0504083C4822013C4282
:1026100045423C38424522783C4340433C384340A5
:1026200023780C1160110C4466554C44486A594893
:102630002B44640A1B685A0A200965564D444869B0
:102640005A49240201021C010201051B010109294A
:102650000A1129042C0205021D120118147F051508
:102660003A503E55554122181408140C444A4A5118
:1026700001180E4A4A4474424142747E1111117E7F
:10268000AD280D49367F02010103704E414E700F97
:10269000180D4161514945437F0808087F3E0F12DC
:1026A0003E14417F4118317F08142241700E010E03
:1026B000707F020C027F7F0408107F635D495D63B9
:1026C0003E4141413E413F013F417F0909090663C7
:1026D0005549414101017F51180B017E0103085505
:1026E0007F5508637D10256307487F48075E6101B9
:1026F000615E384448304C7C2A2A2A144438040449
:1027000008304B4D59302854544420100F1855525E
:10271000223E0402027C3C4A4A4A3C143C402018B7
:102720002D7C1028444041320C30407E2020103E49
:102730001C2040201C142B2A2A603844444438446E
:102740003C047C4470282424180C121252141E4C91
:102750005424043C4A1B3C4028180818247E2418A2
:1027600044284210190C107E100C38443044380AAA
:102770000A4A2A1E044434140C201078041816182F
:10278000084C483848487848484828187C08087C4D
:10279000082818401016405454547C12182D5840E4
:1027A000380801182F01413D090710087C02010E6D
:1027B0000243221E42427E424222120A7F02423FCE
:1027C00002423E0A0A7F0A0A084642221E040342C7
:1027D0003E02420118097E024F221F024A4A87190F
:1027E0002910182A46023F424A46064840201E0841
:1027F000464A321E0A4A3E09080E10094E201E049F
:10280000453D0504147F08101F44241F0404403C68
:10281000100C40422A122A0622127B162214402053
:102820001F12781D0204783FF01A445B1964100FE0
:102830000204083032027F0232021222520E180BBA
:102840002A2A2A40382422207040EB180C060A3E1F
:102850004A4A4A047F04140C4B1B7E400D28094A47
:102860007E040545251C0F4B127C18097E40307EE6
:1028700040201008C11D427E0E0250197117201809
:102880000204010234070507D01008040C020A06EE
:0C2890000E0109050D030B070F000000EE
:0400000508000215D8
:00000001FF
