:020000040800F2
:1000000030050020D10000083917000855150008F8
:1000100000000000000000000000000000000000E0
:100020000000000000000000000000003D17000874
:1000300000000000000000003B17000869170008DE
:10004000E3000008E3000008E3000008E300000804
:10005000E3000008E3000008E3000008E3000008F4
:10006000E3000008E3000008E3000008E3000008E4
:10007000E3000008E9170008E3000008E3000008B7
:10008000E3000008E300000800000000E3000008AF
:10009000E3000008E3000008E3000008E3000008B4
:1000A000E3000008E3000008E3000008E3000008A4
:1000B000E300000800000000E30000080348854654
:1000C00000F044FA004800475D1D0008300500209C
:1000D0000448804704480047FEE7FEE7FEE7FEE7E6
:1000E000FEE7FEE7E5170008BD00000830B50B4647
:1000F000014600202022012409E00D46D5409D4202
:1001000005D31D469540491B254695404019154687
:10011000521E002DF1DC30BD10B5202A04DB08464C
:10012000203AD040002110BD0B46D340D0402024BF
:10013000A21A91400843194610BDD2B201E00270E4
:10014000401C491EFBD270470022F6E710B513464B
:100150000A4604461946FFF7F0FF204610BDF0B5E9
:100160001FB40646002082B005464024019100904D
:100170001BE0019922460F463046FFF7CDFF049A57
:10018000059B801A994110D310461946224600F06B
:10019000EFF9361A8F410197224601200021009F76
:1001A00000F0E6F938184D4100902046641E002802
:1001B000DFDC019B00982946324607B0F0BD000005
:1001C000F0B507460846584087B0C00F0490480075
:1001D0000E46590040084908BC1A884105D23846E5
:1001E00031461E4617460B4602465800400810434B
:1001F0004CD0300D039040055900400D490D05903D
:10020000401A0290402872DA18030121000B0905F8
:100210000843019004980092002805D001995242A9
:100220000020884100920190029840210A1A019909
:10023000009800F09DF905460C466B4607CB00F090
:10024000A7F9C0197141039A0E0D0023D717564024
:100250001A467A40164344D0049A002A2DD0029AB6
:10026000012A039A15DC1205C01A914101263605B0
:10027000001C7141D20F059ED20700930192029695
:100280002A46234600F0A4F907B0F0BD38463146AF
:10029000FAE71605224A0F46B218C01AB7410121E3
:1002A0000905001C4F4100187F411146181879417B
:1002B000E20F10436D19644113E0E2076D08154326
:1002C0006408C2071443039A01261205C01A91411B
:1002D0003605001C7141CE07400830434908C0185C
:1002E00051412A46234600F066F9CDE7FFE704981E
:1002F00001224000C117121A00238B410498314695
:10030000C417381AA141EEE730B40124E407634072
:1003100030BC55E730B40124E407614030BC4FE7FE
:100320000000E0FFF0B51FB488B00B9909980024D5
:1003300048400999C00F490049080991C0070B9925
:100340000090490049080B9109990898A64608436E
:100350001CD00B990A98084318D009980124400032
:10036000420D4800410D099824050003000B20436D
:1003700009900B980003000B20430B9050181C4968
:100380004018002201901446104605E00020014666
:100390000DB0F0BD032801DA034600E003239C46BC
:1003A000C11A0AAE0AE05F0008ADED5B4F00F75BD3
:1003B0007D430027AA187C41491C5B1E6145F2DD84
:1003C000410004AB5A522104120C0A43240C401C75
:1003D0000828DFDB01980290009970460191009097
:1003E000059B049A0799069800F0F2F8D0E7000000
:1003F0000DFCFFFFF0B50C465C4085B0E40FE40750
:1004000003944C00002664085900944649080246AB
:100410000296224321D062460A431ED06200570D45
:100420004A000E032303550D012402462C492405DE
:10043000781B1B0B360B4018234326436146009064
:100440001C46501AB44103D30098401C009002E0AF
:10045000921800985B41002803DA0020014605B09D
:10046000F0BD0020012109050746864611E06446DB
:100470001D46141BB54106D36546521BB341744655
:1004800007430C43A646CD07400849082843921865
:100490005B4105460D43EAD11046184313D0604630
:1004A000194650407140084306D06046101AB341C7
:1004B00006D20122002306E000220123DB0702E02E
:1004C0000122D2435310009874460105381C614143
:1004D000029C039D0019694100F06DF8BFE7000020
:1004E000FD0300004A0009030123090B1B05194302
:1004F0000A4B10B5520D9A4202DA0020014610BD97
:10050000064B34339A4203DC9A1AFFF705FE10BDFE
:10051000034BD21800F02CF810BD0000FF030000C0
:10052000CDFBFFFF10B5002904DB0124E4074042A6
:100530008C412146002B04DB1C460123DB07524281
:10054000A341994200D1904210BD0000064C012504
:10055000064E05E0E36807CC2B430C3C984710346B
:10056000B442F7D3FFF7AEFD2C2700084C27000854
:1005700010B5202A04DB0146203A9140002010BD2E
:10058000914020239C1A0346E3401943904010BD3C
:1005900010B5202A06DBCB170846203A1041C117B8
:1005A0000B4306E00B461341D0402024A21A914091
:1005B0000843194610BD10B5002B08DA0024401C72
:1005C000614192185B411A4301D14008400010BDBF
:1005D000F0B51FB482B005460C0003D0084601F008
:1005E0001DFC02E001F01AFC20300246009021467A
:1005F0002846FFF7BDFF049B059A04460F461843A3
:100600001143084314D0184610431BD000984021D2
:100610000A1A18460599FFF77FFD05460E46009A0F
:1006200005990498FFF7A4FF084305D0012004E0D2
:100630002046394607B0F0BD0020C11705430E43E0
:100640002C43374300990E986305401A7905E40A54
:1006500000220C43FD0A0A3002D500200146E9E7DA
:100660000105101969410C9C0D9D00196941FFF7A6
:10067000A2FFDFE7EFF3108072B6FEE7B0B50446E5
:1006800000F0E2F80546601C02D0F1480078041939
:1006900000F0DAF8401BA042FAD3B0BDF0B58AB042
:1006A0000B68002B00D1B3E05A4A904201D00522DA
:1006B00000E003220092012400252F4604940190BB
:1006C00005910DE03B430198534A079FD3600B68A7
:1006D0001A46E240AD1C3F1D641C002A00D197E081
:1006E000661E049A0896B2401340F0D00797039311
:1006F0004E68122E15D80121B140484B194210D036
:100700000321A94083688B430599C968A94019430F
:100710008160F106C90F089B9940436893430B43DE
:10072000436003210691A940C3688B430746059A9D
:100730009068A8401843F86010200643C943122E61
:1007400010D11C200291079908400F23834008997B
:10075000CE08B600BE19316A9943136983400B4332
:10076000029933623868084051680B46069E334050
:10077000AB4003433B60C80011463846079FA6D5EF
:10078000BF4A116801263143116011683140099157
:100790000C2139400F2302918B400899069A91430E
:1007A000099A1F4FCA599A43CF190923DB06984269
:1007B00009D08B4B984207D01A4B9842009E029862
:1007C00003D1022601E000260298864016433E60CF
:1007D000114A106805994E68F30302D5039F384308
:1007E00001E0039FB84310605068B30301D538435C
:1007F00000E0B84350609068F30201D5384300E050
:10080000B8439060D368B20200D55BE7BB435AE7B8
:100810000AB0F0BD000C00480004014006000600CC
:10082000080001400008004842690B4693430A4013
:100830001104C91881617047002A02D01822815022
:1008400070472822815070476A4800687047C04648
:10085000B0B502464120135C0220202B19D113466B
:1008600040331C78012C14D0242058701068026882
:100870000124A243026022030568954305600268D3
:100880000A430260016821430160002018702021A2
:100890005970B0BDB0B502464120135C0220202B38
:1008A00019D1134640331C78012C14D024205870E1
:1008B000106802680124A24302600F221202056838
:1008C000954309022943016001682143016000202A
:1008D000187020215970B0BDF0B581B0002820D02B
:1008E0000446054640356878002804D10020287069
:1008F000204600F043F82420687020680268012137
:100900008A4302600F22120663689343036183687F
:10091000184A13408360E368012B05D02126B602F4
:1009200003E0012001B0F0BDCE03A7683743876024
:10093000022B01D1CB02436043680F4E1E43466039
:10094000C3681340C360226963691343A26912023A
:100950001A43C260E269236A1343036002680A43D0
:10096000026000206064202169702063A87001B0DB
:10097000F0BDC046FF7FFFFF00800002B0B586B02B
:10098000002105910491039102910191006812499F
:10099000884201D006B0B0BD0125A8040F4C2168E3
:1009A00001432160216801400091059503200490D6
:1009B000039512200290C02001900098084801A9D8
:1009C000FFF76CFE6805A1680143A160A1680140C2
:1009D0000091009806B0B0BD0054004014100240D1
:1009E000000400481A48007802490A681018086094
:1009F0007047C0462801002010B5AD48016810229C
:100A00000A4302600024204600F004F800F024F8B5
:100A1000204610BDB0B504467D20C0000C490978C1
:100A2000FFF764FB0146A7480068FFF75FFB00F093
:100A300077FB0125032C09D8002807D10025E843BE
:100A400021462A4600F022F8024804602846B0BD3C
:100A5000080000200C00002082B009480168012233
:100A60001143016001681140019101991107426829
:100A70000A434260406808400090009802B0704706
:100A80001810024080B501F033F980BD80B501F047
:100A90003BF980BDF0B585B004468078C0073F4B78
:100AA0003ED0012529071A1F1068C000019100924D
:100AB000029502D50020039007E0106808431060FB
:100AC00010680840049004980395354E3068C005BE
:100AD00041D503252802314B1968014012D06268C4
:100AE000024091420ED00298000419681A6802432D
:100AF0001A601A6882431A6008462A4A1040186031
:100B0000C8073AD11868274908406168014319604D
:100B10000398002804D0009A106801998843106057
:100B20002068C10705D0196903229143A2680A43CE
:100B30001A61810605D5196910229143E2680A43BA
:100B40001A610025400525D518694021884321698F
:100B5000014319611EE00298070230683843306093
:100B6000FFF772FE054630683842B2D1FFF76CFEDF
:100B7000401B6428F7D903250CE0FFF765FE064605
:100B80004C4F064B18688007BCD4FFF75DFE801BF6
:100B9000B842F6D9284605B0F0BDC0462010024044
:100BA00000700040FFFCFFFFF0B581B000284ED080
:100BB00004463F4B1A68012002408A4208D21A6854
:100BC0000126B2430A431A601A6832408A426BD146
:100BD000009121688A070ED54A0705D5072212021F
:100BE0004D4D2B6813432B604B4D2A68F0239A43DD
:100BF000A36813432B60C9072BD12D4A1068012627
:100C000030400099884207D91068B043084310600B
:100C100010683040884247D12078400707D5072028
:100C200000023D4A11688143E0680843106000F00B
:100C300059F8394909680906090F1F4A515CC8402B
:100C40002049086000263046FFF7E4FE2CE001262C
:100C50002AE06168304A121F012904D11268920308
:100C6000064621D509E01268022903D19201064601
:100C70001AD502E09207064616D5274A10680326C1
:100C8000B04308431060FFF7DFFD0746094D2248D7
:100C900000680C210140606880008142ADD0FFF700
:100CA000D3FDC01BA842F2D9304601B0F0BDC0460A
:100CB0000020024088130000142700080148006843
:100CC0007047C0460400002080B5FFF7F7FF1249C7
:100CD00009684905490F024A515CC84080BDC046B9
:100CE0002427000810B50C490A680C2313400B4850
:100CF000082B10D193021B0F09A4E45C896AD2036C
:100D000001D40F4805E00F22114009A2515CFFF702
:100D1000EDF94443204610BD0410024000127A0051
:100D200002030405060708090A0B0C0D0E0F10102C
:100D30000102030405060708090A0B0C0D0E0F102B
:100D400000093D00F0B587B007460120002F00D113
:100D5000DEE104903878C007EE4E059711D0716837
:100D60000C200140042906D071680140082937D1C0
:100D70007068C00334D53068800302D578680028D5
:100D800038D0387880074FD570680007800F1BD0A7
:100D900070680C210140082902D17068C00313D586
:100DA0003068059CE168002927D0012108433060A4
:100DB000FFF74AFD0546306880072ED4FFF744FD53
:100DC000401B0228F7D974E130688007059A02D5E4
:100DD000D06801280ED13068F8218843116920E0DD
:100DE0007F68002F00D1AEE0012F00D0B2E00120DB
:100DF0000104B8E0049807B0F0BD012188433060D9
:100E0000FFF722FD0546306880070DD5FFF71CFD72
:100E1000411B03200229F6D97AE13068F821884382
:100E20002169C90001433160059C2078000720D466
:100E30002078400730D42078C00600D49EE0059A80
:100E40005169012970D1706B042101437163706B8A
:100E5000012101437163FFF7F7FC0546706B8007C2
:100E600000D583E0FFF7F0FC411B03200229F5D9F0
:100E70004EE1706AE169002918D0012108437062CF
:100E8000FFF7E2FC0546706A8007D1D4FFF7DCFC6F
:100E9000401B0228F7D90CE101221107F069C000BC
:100EA0000191039211D50020029016E001218843A0
:100EB0007062FFF7C9FC0546706A8007B8D5FFF776
:100EC000C3FC401B0228F7D9F3E0F0690843F06146
:100ED000F06908400690069802928F4F3868C00566
:100EE00010D505988468002C29D0012C039A06D0CF
:100EF000306A052C00D09CE0042108433062306A3F
:100F000010439BE003980402386820433860FFF7E1
:100F10009BFC054638682042E3D1FFF795FC411B56
:100F200003206429F6D9F3E0706B491D6DD10421CB
:100F300088437063706BF821884391691BE0306AC5
:100F40000399884376E00120010432688A433260C5
:100F500081049AE030680121052F00D091E08A04D5
:100F60001043306009043068084390E0706BF8214A
:100F7000884305998969C900014371630598046A2A
:100F8000002C1ED070680C21014008291CD1012CB6
:100F9000049800D1BCE00120030471680B40F26AA0
:100FA000059D6C6AA34200D0B2E00F231A40EC6AA0
:100FB000A24200D0ACE09A041140AA6A914200D04B
:100FC000A6E0002007B0F0BD0120020631680492BF
:100FD000914331604706FFF737FC0546022C0AD1E2
:100FE000049C3068384273D0FFF72EFC411B03206D
:100FF0000229F6D98CE030683842E2D0FFF724FCB1
:10100000411B03200229F6D982E0042108437063C2
:10101000706B012188437063FFF716FC0546706B07
:101020008007ABD5FFF710FC411B03200229F6D93E
:101030006EE090433062306A042188433062374F5B
:10104000FFF702FC0546002C0ED0306A80070ED454
:10105000FFF7FAFB401BB842F7D92AE0FFF7F4FB91
:10106000411B0320B94253D8306A8007F6D4029856
:101070000028059C00D1DEE6F06901998843F06103
:10108000D9E60A04904330608904306888433060B0
:10109000FFF7DAFB054601204404002F0CD0059F22
:1010A0003068204200D06CE6FFF7CEFB401B64287E
:1010B000F6D9032007B0F0BD059F3068204200D16B
:1010C0005FE6FFF7C1FB411B03206429F5D91FE050
:1010D000F06A0F218843059AD16A0143F1623D20ED
:1010E000000471688143906A0843516A014371604A
:1010F000306820433060FFF7A7FB04463068384271
:1011000000D05EE7FFF7A0FB011B03200229F5D901
:1011100007B0F0BD001002400070004088130000CE
:1011200080B500F00DFB80BD70477047B0B53C2224
:10113000825C012A01D10220B0BD02463C3202236A
:10114000537001231370006844687025AC430D6828
:101150002543846845600C4DA84206DC9D07A842E3
:1011600009D00B4DA84206D00AE0084DA84202D093
:10117000294DA84204D18025AC43496821438160B0
:10118000002010705370B0BDFF2B014000400140A3
:1011900000040040B0B500281DD0044605463C358B
:1011A0006878002804D100202870204600F016F846
:1011B0000220687001CC214600F01EFB0120A872BD
:1011C000A870E87028716871A871E8712872687257
:1011D00068700020B0BD0120B0BD000010B582B025
:1011E00000680D49884201D002B010BD0120C00244
:1011F0000A490A6802430A6009680140019101989E
:101200000D24002120460A46FFF740FC2046FFF748
:1012100039FC02B010BDC046002C0140181002403D
:10122000F0B581B004463C20205C012802D10220A8
:1012300001B0F0BD26463C360220707001273770A1
:1012400020688268294B134083600A683F2A14DDB6
:101250005F2A19DD602A28D07B039A422CD0702A9D
:101260003ED14A688D68CB68294600F025FB20688E
:10127000816877220A43826032E01F2A0FDC002A4D
:1012800011D0102A0FD02BE0402A21D0502A27D18C
:10129000CA68496800F065FB206850211EE0202ADA
:1012A00001D0302A1CD1114618E0CA68496800F004
:1012B00069FB2068602111E04A688D68CB68294687
:1012C00000F0FAFAB80321688A6802438A6007E0EE
:1012D000CA68496800F045FB2068402100F0F7FA31
:1012E00000203070777001B0F0BDC0468800FFFF6D
:1012F0007047B0B504468020C5432068016989075E
:1013000016D5C168890713D529467E3101610121AF
:1013100021778069800703D02046FFF7E9FF05E0C9
:10132000204600F08AF8204600F088F80020207758
:1013300020680169490717D5C168490714D52946AE
:101340007C3101610221217780698005800F03D003
:101350002046FFF7CDFF05E0204600F06EF820465E
:1013600000F06CF80020207720680169090716D585
:10137000C168090713D52946783101610421217715
:10138000C069800703D02046FFF7B2FF05E0204682
:1013900000F053F8204600F051F800202077206834
:1013A0000169C90617D5C168C90614D52946703127
:1013B000016108212177C0698005800F03D0204694
:1013C000FFF796FF05E0204600F037F8204600F0D2
:1013D00035F80020207720680169C90708D0C16866
:1013E000C90705D029467F310161204600F027F862
:1013F00020680169090606D5C168090603D505619B
:101400002046FFF791FE20680169490608D5C168AA
:10141000490605D5294640310161204600F033F8E0
:1014200020680169890607D5C168890604D5603539
:1014300005612046FFF779FEB0BD704770477047E1
:1014400070B504463C20205C012801D1022070BD0B
:1014500025463C350220687001262E70204600F09B
:101460003FFA002830460AD12068C16840229143E3
:10147000C16001218903C2688A43C2600020002143
:1014800029706E7070BD7047B0B500282FD004462B
:10149000806F002805D1742000212154204600F0DF
:1014A00029F82420A067206801680125A94301606C
:1014B000204600F01BFB012817D0606A002802D0EC
:1014C000204600F072FA0920C00221684A6882436F
:1014D0004A6088682A229043886008680122024393
:1014E0000A60204600F0CAFA05462846B0BD012031
:1014F000B0BD000010B586B00021059104910391A4
:101500000291019100688B4A904201D006B010BD53
:1015100041484268012305939C032243426042688C
:1015200022400092009A5A04036813430360006843
:10153000104000900391022002900320049040028A
:1015400001900920C006009901A9FFF7A7F806B08D
:1015500010BDC046FEE70000F0B589B00024089435
:1015600007940694059404940126F1042A4802681D
:101570000A43026002680A4003920399B1050268B7
:101580000A43026002680A400392039971040268E8
:101590000A43026002680A4003920399B104026898
:1015A0000A43026000680840039003980920C706B8
:1015B0003421019138462246FFF73EF9112081027D
:1015C000029116482246FFF737F906940594CA207F
:1015D000049004AD38462946FFF760F80794069456
:1015E00005960198049038462946FFF757F8069467
:1015F00005940B480490094F38462946FFF74EF8EA
:101600000794069405960298049038462946FFF7F9
:1016100045F809B0F0BDC04614100240000400486F
:101620000188000010B5124800210122114B124C14
:10163000046043608160C260016141618161C16198
:101640000162FFF749F9002801D0FFF713F80848B5
:101650000021FFF7FDF8002801D0FFF70BF8044840
:101660000021FFF717F9002801D0FFF703F810BD9C
:10167000100000200E0900200054004010B58CB06E
:101680005C4800241D49834A14C0046041608460A2
:10169000C46004610B940A94099408940794069416
:1016A000059404940394019400940838FFF772FDA4
:1016B000002801D0FEF7DEFF0120000308904D480E
:1016C00008A9FFF7ADFD002801D0FEF7D3FF049471
:1016D0000394484803A9FFF7B3FE002801D0FEF7A2
:1016E000C9FF0194009443486946FFF71FFD002895
:1016F00001D0FEF7BFFF0CB010BDC046FFFF0000D9
:1017000010B50B4800210C220A4B01624162E12412
:10171000640218C0016041608160C2600161416182
:101720000838FFF7B1FE002801D0FEF7A3FF10BD77
:10173000A400002000380140FEE770477047000019
:10174000B0B5401E010E01D00120B0BD054D68604E
:101750000024E043032100F0D7FAAC6007202860A2
:101760002046B0BD10E000E080B5FFF73BF980BD3A
:1017700070B596B00AAC30212046FEF7E5FC002596
:10178000099508950795069515950520C0041490B0
:1017900013950226129610200E9001200D900A96A5
:1017A000059504950395029501952046FFF7CAFA21
:1017B000002815D10995089507960720069006A8D8
:1017C0000121FFF7F1F900280AD1049503952120A2
:1017D000019001A8FFF75EF9002801D116B070BD95
:1017E000FEF748FF7047000080B50248FFF781FD13
:1017F00080BDC0465C000020B0B50568012294079A
:10180000A04205D0234B984202D0234B984204D1EA
:1018100070239D434B682B4300E02B461F4DA8428D
:1018200009DD1F4CA0420FDC1A4CA04212D01F4C05
:10183000A0420FD02BE0A0420CD0174CA04209D000
:101840001B4CA04206D022E0164CA04202D0164CFF
:10185000A0421CD103242402A343CC681C43802350
:101860009C434B69234303608B68C3620B688362AC
:10187000104BC3180A24E341072B06D814469C409A
:10188000E1231C4201D0096901634261B0BD1C46DD
:10189000E5E7C046002C014000040040FF2B01405A
:1018A000FF43014000480140004401400040014026
:1018B0000020004000D4FEBFB0B5FF24240285689C
:1018C000A54311431A020A432A438260B0BD8268CD
:1018D00070239A430A430721114381607047000037
:1018E00070B50CC907241D46A54300688468772697
:1018F000B4432C43144384600424E3411B1F00249D
:101900000839032B0ED8C0467B441B795B009F44EB
:101910000113050B052A15D1012070BD0A698968DC
:1019200000F030F8204670BD8A68CD680B69294602
:10193000FFF7C2FF204670BD0A69896800F011F800
:10194000204670BD026A036A0125AB4303628369C6
:10195000F025AB4309690901194381610262204600
:1019600070BDB0B5036A046A0125AC4304628469A2
:10197000F025AC431201224382610A2293430B43B8
:101980000362B0BD10B5036A1024A34303620F23A2
:101990001B0384699C4312032243036A8261A022D1
:1019A000934309011943016210BDB0B5416ACA07EA
:1019B0000CD18A0714D44A071CD40A0724D4CA06B7
:1019C0002CD48A0634D44A063CD44CE0012252047A
:1019D00003685C689443826A22435A608A07EAD5A6
:1019E0000122120403685C689443C26A22435A606D
:1019F0004A07E2D50122920403685C689443026BB3
:101A000022435A600A07DAD50122D20303685C68D0
:101A10009443426B22435A60CA06D2D50122120374
:101A200003689C689443826B22439A608A06CAD5F5
:101A30000122520303689C689443C26B22439A605C
:101A40004A0610D501221305026854689C43056CB0
:101A50002C4354609D4206D103235B0554689C438C
:101A6000436C23435360090607D50121C90402686A
:101A700053688B43806C18435060B0BD70B582B022
:101A80000546802000242C50FEF7DEFE064628681E
:101A9000006800070CD51448009001204105002281
:101AA0002846334600F0CAF8002801D0032417E086
:101AB0002868006840070CD50B480090012081057C
:101AC00000222846334600F0B9F8002801D003244C
:101AD00006E0284674302021A967E96704702C6667
:101AE000204602B070BDC046FFFFFF0170B504463E
:101AF00000680168474A0A40A16823690B43656989
:101B00001D43E1690D431543056003221203436839
:101B10009343E2681A434260A269236A13430B228B
:101B20001202856895431D4385603B4A904209D067
:101B30003A4A904208D13A4800688007000F39A21B
:101B4000135802E0002300E010230125EA0339487E
:101B5000914211D1082B21D80026C0467B441B7925
:101B60005B009F44041B221B201B1B1B3400FFF740
:101B7000ABF800281BD12DE0082B2DD80026C0463D
:101B80007B441B795B009F4404272E272C272727A3
:101B90003C00FFF799F8002827D135E00020012606
:101BA000002804D116E0FFF79DF8002812D040006D
:101BB00061684A081018FEF799FA1F49014024D0BD
:101BC0000007400F08432168C86035461DE01046F5
:101BD0000028ECD1354618E000200126002804D169
:101BE00012E0FFF77FF800280ED061684A0810184D
:101BF000FEF77CFA80B2102807D32168C86035460A
:101C000003E010460028F0D1354600206066A0664B
:101C1000284670BDF369FFFF0044004000380140D2
:101C20003010024000000000040000000800000026
:101C30000200000000127A00F0FF0000F0B585B04D
:101C400004930D4604460068C0690840401A4142AA
:101C500041410020914238D117460290204674300D
:101C600001900A9E01200090C002039007E02068C6
:101C7000C0692840401B41424141B94224D1701CF7
:101C8000F5D0FEF7E1FD21680A68002E1FD0049B05
:101C9000C01AB0421BD85007E9D5C869039A104250
:101CA000E5D0039808620D2040010A6882430A606B
:101CB0008868009A904388602020A067E067002130
:101CC000019A1170D06010E0029805B0F0BD0D20AF
:101CD000400182430A608868009A9043886020200F
:101CE000A0670021019A1170E067032005B0F0BDE4
:101CF000002805D41F2108400121814001480160CE
:101D00007047C04600E100E0002805D403220346E6
:101D100093430C4A9A1806E00F220240083A032324
:101D20009A43074BD2188007C00E8901C9B281407F
:101D3000FF23834010689843084310607047C046F3
:101D40001CED00E000E400E003490A685206FCD5FF
:101D5000C2B28A817047C0461C380140FEF74CFE73
:101D6000FFF706FDFFF7F8FBFFF75CFCFFF7C8FC89
:101D7000FFF784FC10A06424214600F03FF813A074
:101D8000174A184B00F03AF817A0214600F036F831
:101D90007D2084000920C50610212846FEF744FD59
:101DA0002046FEF76BFC20212846FEF73DFD20462D
:101DB000FEF764FCF0E7C0465465737420696E74E6
:101DC0003A2069203D2025640000000054657374AA
:101DD00020666C6F61743A2069203D202566000002
:101DE0005839B4C876BEF33F54657374206865787B
:101DF0003A2069203D203078253278000FB410B5A4
:101E000003A9044B044A029800F0E8F810BC08BC8F
:101E100004B01847491D0008000000202021020CD2
:101E200001D010211046020A01D0104608390209DB
:101E300001D01046091F820801D01046891E4208B1
:101E400001D0881E7047081A704702E008C8121FA8
:101E500008C1002AFAD170477047002001E001C193
:101E6000121F002AFBD17047F0B51FB486B0099845
:101E7000089A030D0021024314D05148514A181802
:101E8000504305141198012810981AD0281A401CA4
:101E900000264D4F4D49009601910490002812DA1A
:101EA000444211E01198012449A3012801D110985E
:101EB000C1430698119A84600360C26041600BB010
:101EC000F0BD4042E4E70446210500203F4A001CE3
:101ED00051410391029012E0E00707D032463B46A1
:101EE00001990098FEF71EFA0191009032463B4698
:101EF00010461946FEF716FA06460F466410002CE7
:101F0000EAD10498039B0028029A0999089806DAF6
:101F1000FEF708FA019B009AFEF704FA05E0FEF7C7
:101F200069FA019B009AFEF765FA04460E46002204
:101F3000284BFEF7F7FA03D80020C043014607E01C
:101F40000022254B20463146FEF73AF9FEF7CAFA41
:101F5000102409E0002C0ADB0A220023FEF7FFF818
:101F6000079B30321A55641E02460A43F2D11122F1
:101F7000641C079B121B1C19119B012B03D001230E
:101F800008430ED10AE0084304D01120109000202D
:101F9000119077E71098151A6D1E0BE01098824289
:101FA00002DD00236D1C03E0824201DA00236D1E76
:101FB000002BEED0069811998260C16030C07EE798
:101FC00001FCFFFF104D0000000014400000F03F36
:101FD000300000000000F0430000E03FFFB597B084
:101FE0000646002518E2252877D100242746FD491A
:101FF000049400E00443761C32780120203A90409B
:102000000842F7D130782A280ED0022230780146D3
:102010003039092916D804990A2359433039401810
:102020001443761C0490F1E7189802C804911890A4
:10203000002904DA012040030443484204900220AE
:102040000443761C30782E2814D104200443707881
:10205000761C2A2809D11898761C80C8189009E0A7
:102060000A214F43303FC719761C3078014630397A
:102070000929F5D930786C2810D006DC4C281AD004
:1020800068280ED06A2817D104E0742813D07A2863
:1020900012D110E00120400504430CE001210905A4
:1020A00001E0032109050C437178814203D101202D
:1020B00000052418761C761C3078119066280BD009
:1020C00013DC58287DD009DC00287BD04528F6D0C9
:1020D0004628F4D047281AD1A5E118E0632835D066
:1020E000642870D0652812D19DE170286CD008DC7E
:1020F0006728F1D069287BD06E280DD06F2806D1D3
:10210000BAE073282ED0752871D0782859D01A9A41
:10211000199990476D1C7EE16002400F022809D09A
:1021200003280DD00428189801680DD00D60001DFB
:10213000189070E11898EA1701680D604A60F6E798
:10214000189801680D80F2E70D70F0E718986A465C
:1021500001781172001D18900020507202A80090A2
:10216000012005E0189802C8189000200091C04393
:1021700061070DD5002101E00199491C0191B94287
:1021800012DA8142F8DB009A515C0029F4D10BE0AD
:10219000002101E00199491C01918142FADB019A79
:1021A0000099895C0029F5D1019904981A9B471A76
:1021B00021463846199A00F097FA019940194518B6
:1021C0000BE04FE02CE113E04EE00098009900781E
:1021D000491C00911A9A199990470198401E019044
:1021E000401CF2D1214638461A9B199A10E137E07B
:1021F0000A200021009001916002410F022907D0BE
:10220000189A01CA1892C2179446032908D00AE006
:102210001898C01DC108C90005C91891944607E067
:1022200000B2C2179446042902D140B2C1178C46AD
:1022300000226146944506DA0A4600214042914157
:102240008C462D2102E0210504D52B216A4611730D
:10225000012103E0E10701D02021F7E7029155E0D9
:102260000A200AE0102008E010200090002104203D
:1022700004430191082703E0082000210191009008
:102280006002410F022907D0189A01CA1892002251
:102290009446032908D008E01898C01DC108C90059
:1022A00005C91891944603E080B2042900D1C0B258
:1022B00000210291210729D51199702906D0009A91
:1022C0001021019B4A401A4305D00EE040216A4686
:1022D0001173012108E06146014306D030216A46AE
:1022E00011731199517302210291009A0821019BE7
:1022F0004A401A430AD16146014301D1610705D51D
:1023000030216A46117301217F1E029111995829CB
:1023100004D035A10E910DA90D910DE037A1F9E77B
:102320006146019B009AFDF71AFF0E9B8C469B5C51
:102330000D9A521E0D92137061460143F0D10D9813
:1023400005A9081A20300190600703D50120000478
:10235000844300E001270198874201DD381A00E03C
:102360000020019900904118029809180498401A19
:102370000490E00306D421461A9B199A049800F0B1
:10238000B3F94519002706E003A81A9AC05D199908
:1023900090476D1C7F1C02988742F5DBE0030CD54B
:1023A00021461A9B199A049800F09EF9451904E0F9
:1023B0001A9A3020199990476D1C0099481E009078
:1023C0000029F5DC08E00D980D990078491C0D9165
:1023D0001A9A199990476D1C0199481E019000297D
:1023E000F1DC63E10928010030313233343536370E
:1023F0003839616263646566000000003031323351
:1024000034353637383941424344454600000000F0
:1024100000F05AF94519761C3078002800D0E2E522
:1024200028461BB0F0BD600700D406271898C01DD1
:10243000C108C90048680A680831C30FDB07189152
:10244000190001D09CA108E0210501D59BA104E061
:10245000E10701D09AA100E09AA1430011985B081E
:10246000109165280CD006DC452809D046281DD0DF
:10247000472841D141E0662818D067283CD13CE08C
:102480000021112F01DB112000E0781C0191009048
:1024900008A911A8FFF7E8FC139905910021119AEA
:1024A00015927F1C12980197009150E00120C007FF
:1024B00003900120019008A9009711A8FFF7D4FC10
:1024C000139A149905920022119B00921298159369
:1024D000059A0192002901D0104602E0791C4018AB
:1024E0000190381A01D5019804E04042401E009046
:1024F000781C0190C01B029043E0012F00DA0127F5
:102500000021112F01DD112000E0384601910090DB
:1025100008A911A8FFF7A8FC13990591119A0021A9
:10252000129815920091019721070CD40599B94290
:1025300001DB019900E00191012904DD159A491E92
:10254000515C302906D0B84201DA011D05DA0121BB
:10255000029115E00199491EEDE7002805DC00997C
:10256000411800910199091A03E0019A411C914216
:1025700000DD01910099401A401C02900120C00723
:102580000390200706D402990198814202DB0020C3
:10259000C043029000206946C87707AF0121039825
:1025A0000337C907884224D0022011902B201290B3
:1025B000039800280CDA404203902D20129007E087
:1025C0000A210398FDF792FD30317F1E0390397088
:1025D0001199481E11900029F2DC03980028EFD1D0
:1025E000791E129808703078202108404530BF1EAF
:1025F000387006A8C01BC01D0390109800780028F2
:1026000000D00120019941180298C01709180398B9
:1026100009180498401A401E0490E00306D421468D
:102620001A9B199A049800F05FF8451910980078E1
:10263000002803D01A9A199990476D1CE00324D5FD
:1026400021461A9B199A049800F04EF845191CE08F
:102650000098002807DB00990598884203DD15984B
:10266000405C199901E0199930201A9A9047009816
:102670006D1C401C00900298401E0290002804D15E
:102680001A9A2E20199990476D1C0199481E0190A5
:102690000029DDDC05E038781A9A7F1C19999047EB
:1026A0006D1C0399481E03900029F4DC21461A9BF7
:1026B000199A0498ACE600002D0000002B000000E1
:1026C0002000000000000000F8B5044600251E466A
:1026D0001746880404D405E039462020B0476D1C15
:1026E000641EF9D52846F8BDFFB50446002581B023
:1026F0001E46C80301D5302700E02027880404D5F2
:1027000005E038460399B0476D1C641EF9D528468C
:1027100005B0F0BD0000000000000000010203044D
:102720000607080900000000010203045027000802
:1027300000000020100000004A1E0008602700086A
:1027400010000020200500005A1E000800000000B4
:102750000000000000127A000100000004000000E8
:04000005080000BD32
:00000001FF
