:020000040800F2
:1000000030050020D100000825120008411000082A
:1000100000000000000000000000000000000000E0
:10002000000000000000000000000000291200088D
:100030000000000000000000271200085512000810
:10004000E3000008E3000008E3000008E300000804
:10005000E3000008E3000008E3000008E3000008F4
:10006000E3000008E3000008E3000008E3000008E4
:10007000E3000008D5120008E3000008E3000008D0
:10008000E3000008E300000800000000E3000008AF
:10009000E3000008E3000008E3000008E3000008B4
:1000A000E3000008E3000008E3000008E3000008A4
:1000B000E300000800000000E30000080348854654
:1000C00000F03CF8004800473518000830050020D3
:1000D0000448804704480047FEE7FEE7FEE7FEE7E6
:1000E000FEE7FEE7D1120008BD00000830B50B4660
:1000F000014600202022012409E00D46D5409D4202
:1001000005D31D469540491B254695404019154687
:10011000521E002DF1DC30BDD2B201E00270401C55
:10012000491EFBD270470022F6E710B513460A4677
:1001300004461946FFF7F0FF204610BD064C012586
:10014000064E05E0E36807CC2B430C3C984710347F
:10015000B442F7D3FFF7B6FFA8180008C818000884
:10016000EFF3108072B6FEE7B0B5044600F0E2F897
:100170000546601C02D0F1480078041900F0DAF856
:10018000401BA042FAD3B0BDF0B58AB00B68002B7B
:1001900000D1B3E05A4A904201D0052200E0032288
:1001A0000092012400252F460494019005910DE052
:1001B0003B430198534A079FD3600B681A46E240BD
:1001C000AD1C3F1D641C002A00D197E0661E049AF6
:1001D0000896B2401340F0D0079703934E68122E52
:1001E00015D80121B140484B194210D00321A94034
:1001F00083688B430599C968A94019438160F1065A
:10020000C90F089B9940436893430B434360032104
:100210000691A940C3688B430746059A9068A84099
:100220001843F86010200643C943122E10D11C2039
:100230000291079908400F2383400899CE08B60021
:10024000BE19316A9943136983400B4302993362A3
:100250003868084051680B46069E3340AB40034364
:100260003B60C80011463846079FA6D5BF4A1168B3
:100270000126314311601168314009910C21394048
:100280000F2302918B400899069A9143099A1F4FB8
:10029000CA599A43CF190923DB06984209D08B4BE0
:1002A000984207D01A4B9842009E029803D102262A
:1002B00001E000260298864016433E60114A10680D
:1002C00005994E68F30302D5039F384301E0039F6D
:1002D000B84310605068B30301D5384300E0B84319
:1002E00050609068F30201D5384300E0B843906055
:1002F000D368B20200D55BE7BB435AE70AB0F0BD52
:10030000000C0048000401400600060008000140FF
:100310000008004842690B4693430A401104C9187B
:1003200081617047002A02D018228150704728222C
:10033000815070476A4800687047C046B0B50246B1
:100340004120135C0220202B19D1134640331C7826
:10035000012C14D024205870106802680124A24394
:100360000260220305689543056002680A43026043
:100370000168214301600020187020215970B0BD30
:10038000B0B502464120135C0220202B19D1134640
:1003900040331C78012C14D0242058701068026857
:1003A0000124A24302600F2212020568954309024C
:1003B0002943016001682143016000201870202159
:1003C0005970B0BDF0B581B0002820D00446054674
:1003D00040356878002804D100202870204600F0BD
:1003E00043F8242068702068026801218A43026073
:1003F0000F2212066368934303618368184A13400F
:100400008360E368012B05D02126B60203E00120BA
:1004100001B0F0BDCE03A76837438760022B01D13E
:10042000CB02436043680F4E1E434660C3681340CF
:10043000C360226963691343A26912021A43C2604E
:10044000E269236A1343036002680A4302600020E2
:100450006064202169702063A87001B0F0BDC046BF
:10046000FF7FFFFF00800002B0B586B0002105913C
:10047000049103910291019100681249884201D0D0
:1004800006B0B0BD0125A8040F4C216801432160CE
:1004900021680140009105950320049003951220E6
:1004A0000290C02001900098084801A9FFF76CFE57
:1004B0006805A1680143A160A1680140009100980E
:1004C00006B0B0BD005400401410024000040048C3
:1004D0001A48007802490A68101808607047C04638
:1004E0002801002010B5AD48016810220A430260BF
:1004F0000024204600F004F800F024F8204610BD47
:10050000B0B504467D20C0000C490978FFF7EEFD28
:100510000146A7480068FFF7E9FD00F077FB0125D9
:10052000032C09D8002807D10025E84321462A4694
:1005300000F022F8024804602846B0BD0400002004
:100540000800002082B009480168012211430160BF
:100550000168114001910199110742680A43426004
:10056000406808400090009802B0704718100240A0
:1005700080B501F033F980BD80B501F03BF980BD55
:10058000F0B585B004468078C0073F4B3ED00125CA
:1005900029071A1F1068C00001910092029502D528
:1005A0000020039007E010680843106010680840BE
:1005B000049004980395354E3068C00541D5032555
:1005C0002802314B1968014012D062680240914202
:1005D0000ED00298000419681A6802431A601A685B
:1005E00082431A6008462A4A10401860C8073AD168
:1005F000186827490840616801431960039800287A
:1006000004D0009A10680199884310602068C107DF
:1006100005D0196903229143A2680A431A61810631
:1006200005D5196910229143E2680A431A61002531
:10063000400525D518694021884321690143196186
:100640001EE002980702306838433060FFF772FE00
:10065000054630683842B2D1FFF76CFE401B642873
:10066000F7D903250CE0FFF765FE06464C4F064B15
:1006700018688007BCD4FFF75DFE801BB842F6D92E
:10068000284605B0F0BDC046201002400070004072
:10069000FFFCFFFFF0B581B000284ED004463F4B71
:1006A0001A68012002408A4208D21A680126B24321
:1006B0000A431A601A6832408A426BD1009121685D
:1006C0008A070ED54A0705D5072212024D4D2B6821
:1006D00013432B604B4D2A68F0239A43A3681343BE
:1006E0002B60C9072BD12D4A106801263040009994
:1006F000884207D91068B043084310601068304042
:10070000884247D12078400707D5072000023D4A9C
:1007100011688143E0680843106000F059F83949D6
:1007200009680906090F1F4A515CC8402049086042
:1007300000263046FFF7E4FE2CE001262AE061683F
:10074000304A121F012904D112689203064621D5AE
:1007500009E01268022903D1920106461AD502E087
:100760009207064616D5274A10680326B043084369
:100770001060FFF7DFFD0746094D224800680C2195
:100780000140606880008142ADD0FFF7D3FDC01BFF
:10079000A842F2D9304601B0F0BDC0460020024068
:1007A0008813000090180008014800687047C04690
:1007B0000000002080B5FFF7F7FF124909684905DE
:1007C000490F024A515CC84080BDC046A0180008CD
:1007D00010B50C490A680C2313400B48082B10D1A4
:1007E00093021B0F09A4E45C896AD20301D40F4869
:1007F00005E00F22114009A2515CFFF777FC44434A
:10080000204610BD0410024000127A0002030405C5
:10081000060708090A0B0C0D0E0F10100102030445
:1008200005060708090A0B0C0D0E0F1000093D0004
:10083000F0B587B007460120002F00D1DEE104901B
:100840003878C007EE4E059711D071680C20014032
:10085000042906D071680140082937D17068C003A7
:1008600034D53068800302D57868002838D03878CD
:1008700080074FD570680007800F1BD070680C216F
:100880000140082902D17068C00313D53068059C67
:10089000E168002927D0012108433060FFF74AFDB5
:1008A0000546306880072ED4FFF744FD401B022820
:1008B000F7D974E130688007059A02D5D06801281D
:1008C0000ED13068F8218843116920E07F68002F3D
:1008D00000D1AEE0012F00D0B2E001200104B8E069
:1008E000049807B0F0BD012188433060FFF722FD76
:1008F0000546306880070DD5FFF71CFD411B03201E
:100900000229F6D97AE13068F82188432169C900C3
:1009100001433160059C2078000720D420784007EF
:1009200030D42078C00600D49EE0059A5169012990
:1009300070D1706B042101437163706B012101431D
:100940007163FFF7F7FC0546706B800700D583E005
:10095000FFF7F0FC411B03200229F5D94EE1706A34
:10096000E169002918D0012108437062FFF7E2FC19
:100970000546706A8007D1D4FFF7DCFC401B0228D3
:10098000F7D90CE101221107F069C000019103922F
:1009900011D50020029016E0012188437062FFF714
:1009A000C9FC0546706A8007B8D5FFF7C3FC401B39
:1009B0000228F7D9F3E0F0690843F061F0690840D4
:1009C0000690069802928F4F3868C00510D505989A
:1009D0008468002C29D0012C039A06D0306A052C9B
:1009E00000D09CE0042108433062306A10439BE051
:1009F00003980402386820433860FFF79BFC0546E3
:100A000038682042E3D1FFF795FC411B032064299D
:100A1000F6D9F3E0706B491D6DD1042188437063F2
:100A2000706BF821884391691BE0306A0399884311
:100A300076E00120010432688A43326081049AE042
:100A400030680121052F00D091E08A041043306006
:100A500009043068084390E0706BF82188430599D9
:100A60008969C900014371630598046A002C1ED08E
:100A700070680C21014008291CD1012C049800D178
:100A8000BCE00120030471680B40F26A059D6C6AAA
:100A9000A34200D0B2E00F231A40EC6AA24200D079
:100AA000ACE09A041140AA6A914200D0A6E000206E
:100AB00007B0F0BD01200206316804929143316015
:100AC0004706FFF737FC0546022C0AD1049C306824
:100AD000384273D0FFF72EFC411B03200229F6D9C0
:100AE0008CE030683842E2D0FFF724FC411B032041
:100AF0000229F6D982E0042108437063706B01215A
:100B000088437063FFF716FC0546706B8007ABD512
:100B1000FFF710FC411B03200229F6D96EE0904339
:100B20003062306A042188433062374FFFF702FC9D
:100B30000546002C0ED0306A80070ED4FFF7FAFB72
:100B4000401BB842F7D92AE0FFF7F4FB411B032012
:100B5000B94253D8306A8007F6D402980028059C21
:100B600000D1DEE6F06901998843F061D9E60A0414
:100B7000904330608904306888433060FFF7DAFBC7
:100B8000054601204404002F0CD0059F3068204208
:100B900000D06CE6FFF7CEFB401B6428F6D903209B
:100BA00007B0F0BD059F3068204200D15FE6FFF737
:100BB000C1FB411B03206429F5D91FE0F06A0F2116
:100BC0008843059AD16A0143F1623D2000047168AF
:100BD0008143906A0843516A014371603068204341
:100BE0003060FFF7A7FB04463068384200D05EE76C
:100BF000FFF7A0FB011B03200229F5D907B0F0BDC8
:100C000000100240007000408813000080B500F022
:100C10000DFB80BD70477047B0B53C22825C012A55
:100C200001D10220B0BD02463C32022353700123A1
:100C30001370006844687025AC430D6825438468D0
:100C400045600C4DA84206DC9D07A84209D00B4D1B
:100C5000A84206D00AE0084DA84202D0294DA84279
:100C600004D18025AC434968214381600020107085
:100C70005370B0BDFF2B0140004001400004004014
:100C8000B0B500281DD0044605463C3568780028DC
:100C900004D100202870204600F016F80220687069
:100CA00001CC214600F01EFB0120A872A870E8705C
:100CB00028716871A871E8712872687268700020E4
:100CC000B0BD0120B0BD000010B582B000680D4974
:100CD000884201D002B010BD0120C0020A490A6852
:100CE00002430A6009680140019101980D24002126
:100CF00020460A46FFF740FC2046FFF739FC02B0C9
:100D000010BDC046002C014018100240F0B581B063
:100D100004463C20205C012802D1022001B0F0BD35
:100D200026463C36022070700127377020688268A2
:100D3000294B134083600A683F2A14DD5F2A19DDBE
:100D4000602A28D07B039A422CD0702A3ED14A6870
:100D50008D68CB68294600F025FB206881687722E2
:100D60000A43826032E01F2A0FDC002A11D0102AC9
:100D70000FD02BE0402A21D0502A27D1CA684968D9
:100D800000F065FB206850211EE0202A01D0302AA7
:100D90001CD1114618E0CA68496800F069FB206858
:100DA000602111E04A688D68CB68294600F0FAFAA4
:100DB000B80321688A6802438A6007E0CA68496804
:100DC00000F045FB2068402100F0F7FA0020307069
:100DD000777001B0F0BDC0468800FFFF7047B0B526
:100DE00004468020C54320680169890716D5C1687B
:100DF000890713D529467E31016101212177806958
:100E0000800703D02046FFF7E9FF05E0204600F009
:100E10008AF8204600F088F80020207720680169D1
:100E2000490717D5C168490714D529467C310161A6
:100E30000221217780698005800F03D02046FFF7CB
:100E4000CDFF05E0204600F06EF8204600F06CF87B
:100E50000020207720680169090716D5C1680907B5
:100E600013D529467831016104212177C0698007B3
:100E700003D02046FFF7B2FF05E0204600F053F80C
:100E8000204600F051F80020207720680169C9064B
:100E900017D5C168C90614D52946703101610821EA
:100EA0002177C0698005800F03D02046FFF796FFA9
:100EB00005E0204600F037F8204600F035F8002025
:100EC000207720680169C90708D0C168C90705D023
:100ED00029467F310161204600F027F8206801692A
:100EE000090606D5C168090603D505612046FFF746
:100EF00091FE20680169490608D5C168490605D5F3
:100F0000294640310161204600F033F8206801692C
:100F1000890607D5C168890604D560350561204674
:100F2000FFF779FEB0BD70477047704770B5044653
:100F30003C20205C012801D1022070BD25463C35B3
:100F40000220687001262E70204600F03FFA00282B
:100F500030460AD12068C16840229143C160012116
:100F60008903C2688A43C2600020002129706E7024
:100F700070BD7047B0B500282FD00446806F0028A0
:100F800005D1742000212154204600F029F82420A6
:100F9000A067206801680125A9430160204600F090
:100FA0001BFB012817D0606A002802D0204600F001
:100FB00072FA0920C00221684A6882434A60886840
:100FC0002A22904388600868012202430A60204672
:100FD00000F0CAFA05462846B0BD0120B0BD0000A9
:100FE00010B586B000210591049103910291019101
:100FF00000688B4A904201D006B010BD414842685B
:10100000012305939C0322434260426822400092E0
:10101000009A5A040368134303600068104000906C
:1010200003910220029003200490400201900920C5
:10103000C006009901A9FFF7A7F806B010BDC04689
:10104000FEE70000F0B589B00024089407940694E8
:10105000059404940126F1042A4802680A430260B8
:1010600002680A4003920399B10502680A430260CC
:1010700002680A4003920399710402680A430260FD
:1010800002680A4003920399B10402680A430260AD
:1010900000680840039003980920C7063421019195
:1010A00038462246FFF73EF9112081020291164888
:1010B0002246FFF737F906940594CA20049004AD40
:1010C00038462946FFF760F807940694059601987C
:1010D000049038462946FFF757F8069405940B48C4
:1010E0000490094F38462946FFF74EF807940694B6
:1010F00005960298049038462946FFF745F809B04E
:10110000F0BDC046141002400004004801880000F1
:1011100010B5124800210122114B124C04604360AB
:101120008160C260016141618161C1610162FFF75B
:1011300049F9002801D0FFF713F808480021FFF70C
:10114000FDF8002801D0FFF70BF804480021FFF755
:1011500017F9002801D0FFF703F810BD1000002098
:101160000E0900200054004010B58CB05C480024EB
:101170001D49834A14C0046041608460C4600461F6
:101180000B940A9409940894079406940594049483
:101190000394019400940838FFF772FD002801D0F1
:1011A000FEF7DEFF0120000308904D4808A9FFF775
:1011B000ADFD002801D0FEF7D3FF04940394484806
:1011C00003A9FFF7B3FE002801D0FEF7C9FF019481
:1011D000009443486946FFF71FFD002801D0FEF741
:1011E000BFFF0CB010BDC046FFFF000010B50B489C
:1011F00000210C220A4B01624162E124640218C002
:10120000016041608160C260016141610838FFF79F
:10121000B1FE002801D0FEF7A3FF10BDA4000020FE
:1012200000380140FEE7704770470000B0B5401E2F
:10123000010E01D00120B0BD054D68600024E043DF
:10124000032100F0D7FAAC60072028602046B0BD2B
:1012500010E000E080B5FFF73BF980BD70B596B0B7
:101260000AAC30212046FEF75EFF0025099508955F
:101270000795069515950520C00414901395022630
:10128000129610200E9001200D900A960595049557
:101290000395029501952046FFF7CAFA002815D15B
:1012A0000995089507960720069006A80121FFF7E3
:1012B000F1F900280AD1049503952120019001A895
:1012C000FFF75EF9002801D116B070BDFEF748FFA8
:1012D0007047000080B50248FFF781FD80BDC04621
:1012E0005C000020B0B5056801229407A04205D03B
:1012F000234B984202D0234B984204D170239D4344
:101300004B682B4300E02B461F4DA84209DD1F4CC4
:10131000A0420FDC1A4CA04212D01F4CA0420FD0AA
:101320002BE0A0420CD0174CA04209D01B4CA0428D
:1013300006D022E0164CA04202D0164CA0421CD18E
:1013400003242402A343CC681C4380239C434B69A1
:10135000234303608B68C3620B688362104BC3181E
:101360000A24E341072B06D814469C40E1231C4283
:1013700001D0096901634261B0BD1C46E5E7C04682
:10138000002C014000040040FF2B0140FF430140BE
:10139000004801400044014000400140002000405E
:1013A00000D4FEBFB0B5FF2424028568A5431143D5
:1013B0001A020A432A438260B0BD826870239A43AE
:1013C0000A430721114381607047000070B50CC9C2
:1013D00007241D46A543006884687726B4432C4340
:1013E000144384600424E3411B1F00240839032BA9
:1013F0000ED8C0467B441B795B009F440113050B4C
:10140000052A15D1012070BD0A69896800F030F8FD
:10141000204670BD8A68CD680B692946FFF7C2FF78
:10142000204670BD0A69896800F011F8204670BD39
:10143000026A036A0125AB4303628369F025AB436B
:1014400009690901194381610262204670BDB0B586
:10145000036A046A0125AC4304628469F025AC4345
:101460001201224382610A2293430B430362B0BDFF
:1014700010B5036A1024A34303620F231B0384697E
:101480009C4312032243036A8261A0229343090111
:101490001943016210BDB0B5416ACA070CD18A0771
:1014A00014D44A071CD40A0724D4CA062CD48A06AA
:1014B00034D44A063CD44CE00122520403685C68F0
:1014C0009443826A22435A608A07EAD501221204B1
:1014D00003685C689443C26A22435A604A07E2D5B3
:1014E0000122920403685C689443026B22435A60B1
:1014F0000A07DAD50122D20303685C689443426B81
:1015000022435A60CA06D2D50122120303689C689E
:101510009443826B22439A608A06CAD50122520301
:1015200003689C689443C26B22439A604A0610D5B4
:1015300001221305026854689C43056C2C435460D7
:101540009D4206D103235B0554689C43436C2343AF
:101550005360090607D50121C904026853688B430B
:10156000806C18435060B0BD70B582B005468020D5
:1015700000242C50FEF7DEFE0646286800680007AF
:101580000CD514480090012041050022284633461E
:1015900000F0CAF8002801D0032417E0286800688A
:1015A00040070CD50B4800900120810500222846F9
:1015B000334600F0B9F8002801D0032406E028469D
:1015C00074302021A967E96704702C66204602B0B8
:1015D00070BDC046FFFFFF0170B50446006801689A
:1015E000474A0A40A16823690B4365691D43E169C5
:1015F0000D43154305600322120343689343E268D9
:101600001A434260A269236A13430B2212028568BF
:1016100095431D4385603B4A904209D03A4A904227
:1016200008D13A4800688007000F39A2135802E039
:10163000002300E010230125EA033948914211D12B
:10164000082B21D80026C0467B441B795B009F44B1
:10165000041B221B201B1B1B3400FFF7ABF80028C8
:101660001BD12DE0082B2DD80026C0467B441B79CA
:101670005B009F4404272E272C2727273C00FFF7D9
:1016800099F8002827D135E000200126002804D150
:1016900016E0FFF79DF8002812D0400061684A0864
:1016A0001018FEF723FD1F49014024D00007400F0A
:1016B00008432168C86035461DE010460028ECD17B
:1016C000354618E000200126002804D112E0FFF77B
:1016D0007FF800280ED061684A081018FEF706FD52
:1016E00080B2102807D32168C860354603E0104651
:1016F0000028F0D1354600206066A066284670BDFF
:10170000F369FFFF00440040003801403010024000
:1017100000000000040000000800000002000000BB
:1017200000127A00F0FF0000F0B585B004930D467A
:1017300004460068C0690840401A41424141002007
:10174000914238D1174602902046743001900A9E8B
:1017500001200090C002039007E02068C069284083
:10176000401B41424141B94224D1701CF5D0FEF7E3
:10177000E1FD21680A68002E1FD0049BC01AB04208
:101780001BD85007E9D5C869039A1042E5D00398E1
:1017900008620D2040010A6882430A608868009A46
:1017A000904388602020A067E0670021019A1170B3
:1017B000D06010E0029805B0F0BD0D2040018243DA
:1017C0000A608868009A904388602020A067002102
:1017D000019A1170E067032005B0F0BD002805D420
:1017E0001F21084001218140014801607047C04627
:1017F00000E100E0002805D40322034693430C4A8D
:101800009A1806E00F220240083A03239A43074B36
:10181000D2188007C00E8901C9B28140FF238340DE
:1018200010689843084310607047C0461CED00E004
:1018300000E400E0FEF756FEFFF710FDFFF702FCA4
:10184000FFF766FCFFF7D2FCFFF78EFC7D208400DB
:101850000920C50610212846FEF75CFD2046FEF74C
:1018600083FC20212846FEF755FD2046FEF77CFC30
:10187000F0E702E008C8121F08C1002AFAD1704739
:101880007047002001E001C1121F002AFBD1704700
:101890000000000000000000010203040607080920
:1018A0000000000001020304C81800080000002026
:1018B0001000000072180008D8180008100000205E
:1018C000200500008218000800127A0001000000C4
:0818D00004000000000000000C
:04000005080000BD32
:00000001FF
